:03000000020006F5
:03005F0002000399
:030003000200FEFA
:2000620090E6007410F090E60174C0F00000000090E60B7403F00000000090E61474E2F041
:200082000000000090E61274A2F00000000090E6047480F00000000090E6047482F0000012
:2000A200000090E6047484F00000000090E6047486F00000000090E6047488F00000000012
:2000C20090E604E4F00000000090E618E4F00000000090E6497482F00000000090E6497496
:2000E20082F0000000002290E670E4F075B20075B30075B3FF75B00D75B50F221200621227
:2001020000E9750A00750BF8E4F50FF51090E6A3E0FB20E2F890E690E0FA7B0090E691E0E0
:20012200F879004BF50DE94AF50E7508007509F0E50D450E70030203AD850882850983E074
:20014200FBA3858208858309E0FAA3858208858309E50D24FEF50DE50E34FFF50EBB410304
:200162000202BBBB43028025BB4402801CBB4603020231BB50028019BB530302025FBB5618
:2001820003020351BB57A980648A9080A38AB0809F850882850983E0F50CA3858208858314
:2001A20009A90C7B0009B900010BE50DC399F50DE50E9BF50EA908AB09A80CE8700789084C
:2001C2008B0902013289828B83E0FFA3A982AB838F9075B0010000000075B000EA2FF59058
:2001E20075B0010000000075B0001880CE90E684E0FB7E0090E685E079002EFEE93BFB8AD0
:20020200007900E82EF8E93BF98806740759FB90E684E0F9780090E685E0FD7C0028F8EC30
:2002220039F9E8B50607E9B5030302013280E0E50F451070030201320000000090E698E5C3
:2002420010F000000000AD0F7E0090E699EDF0750A00750BF8E4F50FF51002013290E6A542
:20026200E0FE20E3F8C374FE950F7401951050220000000090E698E510F000000000AD0F8F
:200282007E0090E699EDF0750A00750BF8E4F50FF510850A82850B83E580F0A385820A855C
:2002A200830BEAF0A385820A85830B7402250FF50FE43510F51002013290E6A5E0FE20E300
:2002C200F88A05E4FEC39DFB74029EFCC3EB950FEC951050220000000090E698E510F00000
:2002E200000000AB0F7C0090E699EBF0750A00750BF8E4F50FF510ED250FF50FEE3510F5AB
:200302001075908075B0047E0F00DEFD7590007E0300DEFD7F0FAD0AAE0B8A04EC70068DD9
:200322000A8E0B80237590407430558042078D828E83EFF0A3AD82AE8374075CFF75900091
:200342007B0500DBFD1C80D40075B00002013290E6A5E0FF20E3F8C374FE950F7401951091
:2003620050220000000090E698E510F000000000AE0F7F0090E699EEF0750A00750BF8E412
:20038200F50FF510850A82850B83E4F0A385820A85830B7401F0A385820A85830B740225CC
:1803A2000FF50FE43510F5100201320000000090E6497482F002010F16
:06003500E478FFF6D8FD9F
:200013007900E94400601B7A009003BE780075A000E493F2A308B8000205A0D9F4DAF275D3
:02003300A0FF2C
:20003B007800E84400600A790075A000E4F309D8FC7800E84400600C7900900000E4F0A3C5
:04005B00D8FCD9FAFA
:0D0006007581101203BAE582600302000349
:0403BA007582002226
:00000001FF
